{"abi":[{"type":"function","name":"count","inputs":[],"outputs":[{"name":"","type":"uint256","internalType":"uint256"}],"stateMutability":"view"},{"type":"function","name":"decrement","inputs":[],"outputs":[],"stateMutability":"nonpayable"},{"type":"function","name":"increment","inputs":[],"outputs":[],"stateMutability":"nonpayable"},{"type":"function","name":"reset","inputs":[],"outputs":[],"stateMutability":"nonpayable"}],"bytecode":{"object":"0x6080604052348015600e575f5ffd5b506102a68061001c5f395ff3fe608060405234801561000f575f5ffd5b506004361061004a575f3560e01c806306661abd1461004e5780632baeceb71461006c578063d09de08a14610076578063d826f88f14610080575b5f5ffd5b61005661008a565b6040516100639190610126565b60405180910390f35b61007461008f565b005b61007e6100ec565b005b610088610106565b005b5f5481565b5f5f54116100d2576040517f08c379a00000000000000000000000000000000000000000000000000000000081526004016100c9906101bf565b60405180910390fd5b60015f5f8282546100e3919061020a565b92505081905550565b60015f5f8282546100fd919061023d565b92505081905550565b5f5f81905550565b5f819050919050565b6101208161010e565b82525050565b5f6020820190506101395f830184610117565b92915050565b5f82825260208201905092915050565b7f436f756e7465723a2063616e6e6f742064656372656d656e742062656c6f77205f8201527f7a65726f00000000000000000000000000000000000000000000000000000000602082015250565b5f6101a960248361013f565b91506101b48261014f565b604082019050919050565b5f6020820190508181035f8301526101d68161019d565b9050919050565b7f4e487b71000000000000000000000000000000000000000000000000000000005f52601160045260245ffd5b5f6102148261010e565b915061021f8361010e565b9250828203905081811115610237576102366101dd565b5b92915050565b5f6102478261010e565b91506102528361010e565b925082820190508082111561026a576102696101dd565b5b9291505056fea2646970667358221220b4732b00f08bf619641e5f4b7b1f6da30b5f0c69ca324eb7b146e771fcd18c1864736f6c634300081e0033","linkReferences":{}},"methodIdentifiers":{"count()":"06661abd","decrement()":"2baeceb7","increment()":"d09de08a","reset()":"d826f88f"},"id":0}